S01B000061746D656761382D696C69393334312D7370692E73726563AD
S113000090C2AAC2A9C2A8C2A7C2A6C2A5C2A4C2BB
S1130010A3C2A2C2A1C2A0C29FC29EC29DC29CC2D0
S11300209BC29AC299C200000000003E5B4F5B3E37
S11300303E6B4F6B3E1C3E7C3E1C183C7E3C181CA9
S1130040577D571C1C5E7F5E1C00183C1800FFE7A0
S1130050C3E7FF0018241800FFE7DBE7FF30483A46
S1130060060E2629792926407F050507407F0525A8
S11300703F5A3CE73C5A7F3E1C1C08081C1C3E7F30
S113008014227F22145F5F005F5F06097F017F00F7
S11300906689956A606060606094A2FFA294080417
S11300A07E040810207E201008082A1C08081C2A38
S11300B008081E101010100C1E0C1E0C30383E3890
S11300C030060E3E0E06000000000000005F000037
S11300D00007000700147F147F14242A7F2A1223A8
S11300E01308646236495620500008070300001CB8
S11300F02241000041221C002A1C7F1C2A08083EC1
S113010008080080703000080808080800006060D3
S11301100020100804023E5149453E00427F400041
S113012072494949462141494D331814127F102719
S1130130454545393C4A4949314121110907364968
S1130140494936464949291E00001400000040343C
S11301500000000814224114141414140041221441
S11301600802015909063E415D594E7C1211127C68
S11301707F494949363E414141227F4141413E7FC9
S1130180494949417F090909013E414151737F08A9
S113019008087F00417F41002040413F017F08144F
S11301A022417F404040407F021C027F7F040810B0
S11301B07F3E4141413E7F090909063E4151215E8E
S11301C07F09192946264949493203017F01033F22
S11301D04040403F1F2040201F3F4038403F6314B1
S11301E008146303047804036159494D43007F41B3
S11301F041410204081020004141417F04020102F0
S11302000440404040400003070800205454784014
S11302107F284444383844444428384444287F38A8
S11302205454541800087E090218A4A49C787F082A
S113023004047800447D40002040403D007F1028A5
S1130240440000417F40007C047804787C08040466
S1130250783844444438FC1824241818242418FCFE
S11302607C08040408485454542404043F44243CA3
S11302704040207C1C2040201C3C4030403C442812
S11302801028444C9090907C4464544C44000836AC
S1130290410000007700000041360800020102041A
S11302A0023C2623263C1EA1A161123A4040207A3A
S11302B03854545559215555794122545478422182
S11302C05554784020545579400C1E5272123955B9
S11302D055555939545454593955545458000045B6
S11302E07C410002457D420001457C407D12111293
S11302F07DF0282528F07C545545002054547C5426
S11303007C0A097F4932494949323A4444443A32E1
S11303104A4848303A4141217A3A42402078009D87
S1130320A0A07D3D4242423D3D4040403D3C24FF33
S11303302424487E4943662B2FFC2F2BFF0929F6E2
S113034020C0887E090320545479410000447D4133
S11303503048484A32384040227A007A0A0A727D8C
S11303600D19317D2629292F2826292929263048A7
S11303704D4020380808080808080808382F10C815
S1130380ACBA2F102834FA00007B000008142A1499
S11303902222142A1408AA005500AAAA55AA55AA6A
S11303A0000000FF00101010FF00141414FF0010D0
S11303B010FF00FF1010F010F0141414FC001414BB
S11303C0F700FF0000FF00FF1414F404FC141417DA
S11303D0101F10101F101F1414141F00101010F001
S11303E0000000001F101010101F10101010F0104B
S11303F0000000FF101010101010101010FF10005B
S11304000000FF140000FF00FF00001F1017000091
S1130410FC04F414141710171414F404F40000FF6B
S113042000F714141414141414F700F71414141704
S11304301410101F101F141414F4141010F010F0E2
S113044000001F101F0000001F14000000FC140017
S113045000F010F01010FF10FF141414FF1410100B
S1130460101F00000000F010FFFFFFFFFFF0F0F08E
S1130470F0F0FFFFFF0000000000FFFF0F0F0F0F61
S11304800F3844443844FC4A4A4A347E0202060681
S1130490027E027E0263554941633844443C044071
S11304A07E201E2006027E020299A5E7A5991C2A39
S11304B0492A1C4C7201724C304A4D4D30304878F8
S11304C04830BC625A463D3E494949007E0101011B
S11304D07E2A2A2A2A2A44445F444440514A4440FA
S11304E040444A51400000FF0103E080FF0000083F
S11304F0086B6B083612362436060F090F06000007
S113050018180000001010003040FF0101001F0106
S1130510011E00191D1712003C3C3C3C0000000069
S1130520000011241FBECFE5D4E0DEBFCDBF10E034
S1130530A0E6B0E0E6E6F9E102C005900D92A03C29
S1130540B107D9F710E0A0ECB0E001C01D92AF3DB7
S1130550B107E1F702D005CA53CD80E690E090934D
S1130560DC008093DB0073D180E090E031D28FE334
S11305709DE0A3E081509040A040E1F700C000005E
S113058083E06CD3A3EFB1E01197F1F700C0000052
S11305902FD58FEF97E060E070E0CAD46091CC0073
S11305A07091CD008091CE009091CF00B8D483EFAC
S11305B091E00197F1F700C0000083E0C2D481E329
S11305C0C8D4A3EFB1E01197F1F700C0000080E3B5
S11305D0C0D483EF91E00197F1F700C000008EE2F0
S11305E0B8D4A3EFB1E01197F1F700C0000082E3A3
S11305F0B0D483EF91E00197F1F700C0000083E3EA
S1130600A8D4A3EFB1E01197F1F700C00000609106
S1130610D0007091D1008091C8009091C9007FD41E
S113062083EF91E00197F1F700C0000085E089D4E1
S113063082E38FD4A3EFB1E01197F1F700C000007B
S113064080E387D483EF91E00197F1F700C00000C5
S11306508EE27FD4A3EFB1E01197F1F700C0000060
S113066082E377D483EF91E00197F1F700C00000B3
S113067083E36FD4A3EFB1E01197F1F700C000005A
S11306808FE79AE1A6E081509040A040E1F700C0D6
S113069000006091CC007091CD008091CE009091CB
S11306A0CF003DD4A3EFB1E01197F1F700C00000F3
S11306B083E047D489E34DD483EF91E00197F1F7C8
S11306C000C0000080E345D4A3EFB1E01197F1F737
S11306D000C000008EE23DD483EF91E00197F1F772
S11306E000C0000084E335D4A3EFB1E01197F1F723
S11306F000C0000085E32DD483EF91E00197F1F76A
S113070000C000006091D0007091D1008091C800B9
S11307109091C90004D4A3EFB1E01197F1F700C0A0
S1130720000085E00ED489E314D483EF91E00197AF
S1130730F1F700C0000080E30CD4A3EFB1E01197FF
S1130740F1F700C000008EE204D483EF91E001973A
S1130750F1F700C0000084E3FCD3A3EFB1E01197EC
S1130760F1F700C0000085E3F4D383EF91E0019733
S1130770F1F700C000008FE79AE1A6E081509040B5
S1130780A040E1F700C0000004CF8FEF81BB979A2F
S1130790B89A089587B38E6287BB80E58DB9709A45
S11307A0C19A08958FB9779BFECF089598B39C7F23
S11307B098BB00C000C00000F5DFC19A0895C09A3C
S11307C00000C198EFDFC19A0895DF92EF92FF9283
S11307D00F931F93CF93DF93F82EE92ED62ED72FA6
S11307E0142F052FC22F8AE2E1DF8E2DE8DF8F2D33
S11307F0E6DF802FE4DF812FE2DF8BE2D7DF8D2F6E
S1130800DEDF8D2DDCDF8C2FDADF8C2FD8DF8CE25E
S1130810CDDFDF91CF911F910F91FF90EF90DF908B
S11308200895979A8FE493EC0197F1F700C00000C4
S113083097988FE493EC0197F1F700C00000979A22
S11308408FE493EC0197F1F700C0000008959DDF59
S1130850A1DFE7DF81E0AADF8FE39DE0A3E0815021
S11308609040A040E1F700C000008BEC9FDF89E3DB
S1130870A6DF8CE2A4DF80E0A2DF84E3A0DF82E0D5
S11308809EDF8FEC93DF80E09ADF81EC98DF80E3DA
S113089096DF88EE8BDF85E892DF80E090DF88E7E3
S11308A08EDF8AEE83DF80E08ADF80E088DF8DEEF2
S11308B07DDF84E684DF83E082DF82E180DF81E81C
S11308C07EDF87EF73DF80E27ADF80EC6FDF83E225
S11308D076DF81EC6BDF80E172DF85EC67DF8EE32E
S11308E06EDF88E26CDF87EC61DF86E868DF86E331
S11308F05DDF88E464DF8AE359DF85E560DF81EB4F
S113090055DF80E05CDF88E15ADF86EB4FDF88E06B
S113091056DF82E854DF87E252DF82EF47DF80E070
S11309204EDF86E243DF81E04ADF80EE3FDF8FE087
S113093046DF81E344DF8BE242DF8CE040DF8EE080
S11309403EDF88E03CDF8EE43ADF81EF38DF87E387
S113095036DF87E034DF80E132DF83E030DF8EE0B2
S11309602EDF89E02CDF80E02ADF81EE1FDF80E0CC
S113097026DF8EE024DF84E122DF83E020DF81E1D3
S11309801EDF87E01CDF81E31ADF81EC18DF88E4D7
S113099016DF88E014DF8FE012DF8CE010DF81E3E4
S11309A00EDF86E30CDF8FE00ADF81E1FFDEAFE2DA
S11309B0B5E71197F1F700C0000089E2F7DE08956A
S11309C0CF93C82F892FFBDE8C2FF9DECF910895AA
S11309D0CF92DF92EF92FF920F931F93CF93DF9307
S11309E08C01409170005091710020916E00309103
S11309F06F00415050402150304080E090E060E072
S1130A0070E0E3DE80917000909171000097B9F47A
S1130A1021C0E601C801D4DF219680916E00909137
S1130A206F00C817D907B0F30894E11CF11C80913A
S1130A30700090917100E816F90628F00BC0EE24BE
S1130A40FF24CC24DD2480916E0090916F000097E8
S1130A5001F7EACFDF91CF911F910F91FF90EF90B3
S1130A60DF90CF900895CF93DF93EA012091700037
S1130A70309171008217930780F420916E003091B9
S1130A806F006217730748F4AC014F5F5F4F9B011F
S1130A902F5F3F4F9ADECE0193DFDF91CF91089510
S1130AA00F931F93CF93DF93FC01EA018901809197
S1130AB0700090917100E817F90730F580916E008D
S1130AC090916F0068177907F8F4AB0141505040DA
S1130AD020916E0030916F00CA018C0F9D1F821708
S1130AE0930730F0C0916E00D0916F00C61BD70BF6
S1130AF09E01240F351FCF01AF0167DE209721F03F
S1130B00C8015EDF2197E1F7DF91CF911F910F912B
S1130B1008950F931F93CF93DF93FC01DB01EA0148
S1130B2089018091700090917100E817F90730F500
S1130B3080916E0090916F0068177907F8F4AF0107
S1130B40415050402091700030917100CA018C0FC7
S1130B509D1F8217930730F0C0917000D0917100EF
S1130B60CE1BDF0B4C0F5D1FCF01BD019D012DDEA0
S1130B70209721F0C80124DF2197E1F7DF91CF917D
S1130B801F910F910895AF92BF92CF92DF92EF928F
S1130B90FF920F931F93CF93DF93FC015A01E90156
S1130BA078018091700090917100E817F90708F0BE
S1130BB04AC080916E0090916F006817790708F021
S1130BC042C0AF01415050402091700030917100FB
S1130BD0CA018A0D9B1D8217930738F0809170001B
S1130BE0909171005C01AE1ABF0ADB01119720914C
S1130BF06E0030916F00CD018C0F9D1F82179307FB
S1130C0038F080916E0090916F00EC01C61BD70BF9
S1130C104A0D5B1D9E012A0F3B1FCF01D6DD209795
S1130C2059F411C0CD2DDC2DC701CADE2197E1F79F
S1130C300150104021F407C08E01DA2CCB2CA114F2
S1130C40B10481F7F5CFDF91CF911F910F91FF9000
S1130C50EF90DF90CF90BF90AF900895CF93C82FBF
S1130C6086E3A4DDC370C130B1F0C13028F0C230D6
S1130C7009F1C330E1F52DC088E4A1DD80EF90E0F7
S1130C80909371008093700080E491E090936F00E2
S1130C9080936E002CC088E292DD80E491E0909312
S1130CA071008093700080EF90E090936F008093C8
S1130CB06E001DC088E883DD80EF90E090937100A2
S1130CC08093700080E491E090936F0080936E00B5
S1130CD00EC088EE74DD80E491E0909371008093FF
S1130CE0700080EF90E090936F0080936E00CF913E
S1130CF008958091D4009091D5009093CF00809373
S1130D00CE008091C2009091C3009093CD00809357
S1130D10CC0008958091D4009091D5009093C9009F
S1130D208093C8008091C2009091C3009093D10039
S1130D308093D00008958091D4009091D500909331
S1130D40CB008093CA008091C2009091C30090931D
S1130D50D8008093D70008958091D4009091D50055
S1130D609093C5008093C4008091C2009091C30009
S1130D709093C7008093C60008952F923F924F929C
S1130D805F926F927F928F929F92AF92BF92CF9217
S1130D90DF92EF92FF920F931F93CF93DF93CDB720
S1130DA0DEB729970FB6F894DEBF0FBECDBF3C0166
S1130DB01901AE2C9A8389838091700090917100FF
S1130DC06816790608F092C0462E572F80916E005F
S1130DD090916F006817790708F088C08E2C9924C9
S1130DE0C401880F991F880D991D880F991F860DBE
S1130DF0971D01970AF47AC0C401880F991F880FC0
S1130E00991F880F991F860F971F01970AF46EC0C8
S1130E10842F90E09C01220F331F220F331FB9014E
S1130E20680F791F7D836C835524BB245E835B82AA
S1130E304F82230138017B81753039F0EC81FD81CB
S1130E40EA5DFF4FE4910E2F01C00B2DCF80DE80B1
S1130E50EC2CFD2C18E019870887888580FF12C0C8
S1130E6091E0A91631F489819A81B601A101FBDDD3
S1130E701DC0C201B7014A2D5B2D2A2D3B2D8101D6
S1130E8082DE14C06214730489F0A1E0AA1631F45E
S1130E9089819A81B601A301E6DD08C0C201B701C8
S1130EA04A2D5B2D2A2D3B2D83016DDEB885B69529
S1130EB0B887E985E150E987E80CF91C0894C11C5E
S1130EC0D11CEE2351F6FB81FF5FFB83480C591CB8
S1130ED069817A816F5F7F4F7A8369838C819D8179
S1130EE001969D838C83F63009F0A5CF29960FB621
S1130EF0F894DEBF0FBECDBFDF91CF911F910F914C
S1130F00FF90EF90DF90CF90BF90AF909F908F9025
S1130F107F906F905F904F903F902F9008959093A3
S1130F20D5008093D4007093C3006093C2000895E9
S1130F309093D3008093D2007093C1006093C0005B
S1130F400895893028F4882309F481E08093D60039
S1130F500895EF920F931F93482F8A30C1F4809124
S1130F60D6002091C2003091C30090E0880F991FF1
S1130F70880F991F880F991F820F931F9093C300A6
S1130F808093C2001092D5001092D4002BC08D30F3
S1130F9049F12091D4003091D5006091C200709144
S1130FA0C300E091D200F091D3000091C0001091F1
S1130FB0C100E090D600C9019F01DFDE2091D60078
S1130FC08091D4009091D50030E0A901440F551FC1
S1130FD0240F351F220F331F820F931F9093D500C8
S1130FE08093D4001F910F91EF900895B2DF08957C
S1130FF00F931F93CF93DF9382EB90E09093DC00E9
S11310008093DB0084E090E064E070E088DF83EFAD
S113101091E00197F1F700C0000080EE97E060E0F6
S113102070E086DFA3EFB1E01197F1F700C0000094
S113103082E087DFE3EFF1E03197F1F700C00000D1
S113104000D082E790E0ADB7BEB712969C938E9322
S11310501197A1D1E3EFF1E03197F1F700C000005F
S11310600F900F9080E098EF60E070E061DF83EF15
S113107091E00197F1F700C0000082E062DFA3EF86
S1131080B1E01197F1F700C0000000D08AE790E0CA
S1131090EDB7FEB7928381837ED183EF91E0019710
S11310A0F1F700C000000F900F9084E090E068E238
S11310B070E035DFA3EFB1E01197F1F700C0000055
S11310C08FEF97E060E070E033DFE3EFF1E031971A
S11310D0F1F700C0000084E034DF83EF91E0019772
S11310E0F1F700C0000086E534DFA3EFB1E011970B
S11310F0F1F700C000008091C2009091C3000696F1
S11311009093C3008093C20083E01BDFE3EFF1E020
S11311103197F1F700C00000CBE8D0E0CE014DD10B
S113112083EF91E00197F1F700C000008091C200C5
S11311309091C3000C969093C3008093C200D9DDB4
S113114000D08FE890E0ADB7BEB712969C938E9313
S1131150119721D1E3EFF1E03197F1F700C00000DE
S11311600F900F9084E090E068E770E0D8DE83EFA2
S113117091E00197F1F700C0000084E0E2DEA3EF04
S1131180B1E01197F1F700C0000086E5E2DEE3EF7D
S1131190F1E03197F1F700C000008091C200909116
S11311A0C30006969093C3008093C20083E0C9DE17
S11311B083EF91E00197F1F700C0000086E990E029
S11311C0FCD0A3EFB1E01197F1F700C00000A2DD5D
S11311D085E0B7DE00D00EE910E0EDB7FEB712836C
S11311E00183D9D083EF91E00197F1F700C00000AB
S11311F00F900F9084EA90E068E270E090DEA3EF35
S1131200B1E01197F1F700C0000080EE9FEF60E0BD
S113121070E08EDEE3EFF1E03197F1F700C00000FB
S113122084E08FDE83EF91E00197F1F700C00000C6
S113123089E48FDEA3EFB1E01197F1F700C000005D
S11312408091C2009091C30006969093C30080934E
S1131250C20083E076DEE3EFF1E03197F1F700C0FE
S1131260000000D0ADB7BEB71296DC93CE931197B1
S113127092D0E3EFF1E03197F1F700C00000C4EA47
S1131280D0E0D093D500C093D4008091C200909157
S1131290C30084969093C3008093C2000F900F9074
S11312A04ADD83E04EDE00D084EA90E0ADB7BEB7FD
S11312B012969C938E9311976ED0E3EFF1E03197E1
S11312C0F1F700C000000F900F9084EA90E068E707
S11312D070E025DE83EF91E00197F1F700C0000094
S11312E084E02FDEA3EFB1E01197F1F700C0000016
S11312F089E42FDEE3EFF1E03197F1F700C000005D
S11313008091C2009091C30006969093C30080938D
S1131310C20083E016DE83EF91E00197F1F700C08D
S1131320000000D08BEA90E0ADB7BEB712969C9354
S11313308E93119730D0E3EFF1E03197F1F700C0CD
S11313400000D093D500C093D4000F900F9004DD1B
S11313508091C2009091C300C0969093C300809383
S1131360C20085E0EEDD00D0ADB7BEB712961C9387
S11313700E93119710D08FE79AE1A6E08150904028
S1131380A040E1F700C000000F900F90DF91CF91D3
S11313901F910F910895A0E0B0E0E0EDF9E0BAC22A
S11313A0FE013596619171918091DB009091DC0092
S11313B0AF0131D02096E2E0C9C20F931F93CF93BF
S11313C0DF938C01E091DB00F091DC00838181FFED
S11313D01AC0C0E0D0E005C00995009711F0CFEF26
S11313E0DFEFF80181918F016091DB007091DC00E7
S11313F0DB011896ED91FC911997882369F78AE02F
S11314000995009711F0CFEFDFEFCE01DF91CF9177
S11314101F910F910895ADE0B0E0E0E1FAE06AC2F7
S11314203C017D876C875A01FC01178216828381F7
S113143081FFBBC12E010894411C511CF30193810F
S1131440EC85FD8593FD859193FF8191FD87EC8764
S1131450882309F4A6C1853241F493FD859193FF55
S11314608191FD87EC87853221F490E0B301B8D1F6
S1131470E5CFFF24EE2410E01032B0F48B3269F093
S11314808C3228F4803251F0833271F40BC08D32E7
S113149039F0803349F411602CC01260146029C003
S11314A0186027C0106125C017FD2EC0282F2053B7
S11314B02A3098F416FF08C08F2D880FF82EFF0CE1
S11314C0FF0CF80EF20E15C08E2D880FE82EEE0CD0
S11314D0EE0CE80EE20E10620CC08E3221F416FD02
S11314E060C1106406C08C3611F4106802C08836DE
S11314F059F4EC85FD8593FD859193FF8191FD87DA
S1131500EC87882309F0B8CF982F9554933018F0BE
S11315109052933038F424E030E0A20EB31E3FE33F
S113152039830FC0833631F0833781F0833509F076
S113153056C021C0F5018081898322E030E0A20EEB
S1131540B31E21E0C22ED12C420113C092E0292EF9
S1131550312C2A0C3B1CF5018080918016FF03C0BE
S11315606F2D70E002C06FEF7FEFC4012ED16C01CC
S113157051011F7714C082E0282E312C2A0C3B1C09
S1131580F5018080918016FF03C06F2D70E002C0CA
S11315906FEF7FEFC4010ED16C011068510113FD90
S11315A01AC005C080E290E0B3011AD1EA948E2DEE
S11315B090E0C816D906B0F30EC0F40117FD85916A
S11315C017FF81914F0190E0B3010AD1E110EA9431
S11315D00894C108D108C114D10479F7DFC0843656
S11315E011F0893649F5F50117FF07C08081918113
S11315F0A281B38124E030E008C080819181AA27D0
S113160097FDA095BA2F22E030E0A20EB31E012F61
S11316100F76B7FF08C0B095A095909581959F4F20
S1131620AF4FBF4F0068BC01CD01A2012AE030E0FA
S113163003D1D82ED4183EC0853721F41F7E2AE06A
S113164030E020C0197F8F36A9F0803720F4883528
S113165009F0A7C00BC0803721F0883709F0A1C07A
S113166001C0106114FF09C0146007C014FF08C052
S1131670166006C028E030E005C020E130E002C07A
S113168020E132E0F50117FF07C06081718182819A
S1131690938144E050E006C06081718180E090E075
S11316A042E050E0A40EB51EA201C6D0D82ED41834
S11316B0012F0F7706FF09C00E7FDF1430F404FFFB
S11316C006C002FD04C00F7E02C01D2D01C01F2DE7
S11316D0802F90E004FF0CC0FE01ED0DF11D208170
S11316E0203311F4097E09C002FF06C01E5F05C045
S11316F086789070009709F01F5F802E992403FD6F
S113170011C000FF0CC0FD2C1E1548F4FE0CF11A8C
S11317101E2D05C080E290E0B30162D01F5F1E154C
S1131720C8F304C01E1510F4E11A01C0EE2484FEAF
S11317300EC080E390E0B30153D082FE1DC081FE51
S113174003C088E590E010C088E790E00DC0C401B4
S113175086789070009781F081FC02C080E201C01D
S11317608BE207FD8DE290E0B3013AD005C080E33F
S113177090E0B30135D0FA94DF14C8F3DA94F2019F
S1131780ED0DF11D808190E0B3012AD0DD20B1F789
S113179005C080E290E0B30123D0EA94EE20C9F7BB
S11317A04DCEF3018681978102C08FEF9FEF2D9676
S11317B0E2E1BCC0FC010590615070400110D8F713
S11317C0809590958E0F9F1F0895FC016150704085
S11317D001900110D8F7809590958E0F9F1F089562
S11317E00F931F93CF93DF938C01EB018B8181FFC8
S11317F01BC082FF0DC02E813F818C819D812817E3
S1131800390764F4E881F9810193F983E88306C018
S1131810E885F985802F0995009731F48E819F81A1
S113182001969F838E8302C00FEF1FEFC801DF91E3
S1131830CF911F910F910895FA01AA27283051F1F1
S1131840203181F1E8946F936E7F6E5F7F4F8F4FED
S11318509F4FAF4FB1E03ED0B4E03CD0670F781F4C
S1131860891F9A1FA11D680F791F8A1F911DA11D31
S11318706A0F711D811D911DA11D20D009F468946A
S11318803F912AE0269F11243019305D3193DEF612
S1131890CF010895462F4770405D4193B3E00FD0C8
S11318A0C9F7F6CF462F4F70405D4A3318F0495DB3
S11318B031FD4052419302D0A9F7EACFB4E0A69596
S11318C09795879577956795BA95C9F700976105B8
S11318D0710508959B01AC010A2E0694579547950E
S11318E037952795BA95C9F7620F731F841F951F03
S11318F0A01D08952F923F924F925F926F927F9214
S11319008F929F92AF92BF92CF92DF92EF92FF920B
S11319100F931F93CF93DF93CDB7DEB7CA1BDB0BB7
S11319200FB6F894DEBF0FBECDBF09942A8839885C
S113193048885F846E847D848C849B84AA84B98463
S1131940C884DF80EE80FD800C811B81AA81B9816F
S1131950CE0FD11D0FB6F894DEBF0FBECDBFED0183
S10919600895F894FFCF86
S11319660000000200000000F60700000000F0007E
S113197640016D6F6465202D2000636F6E73746182
S11319866E7420766F6C74616765007365740030DD
S1131996302E3030760061637475616C0A00303025
S11319A62E30300030302E30306100616374756142
S11319B66C000000000200000000F60700000000B2
S9030000FC
